{
  "_format": "hh-sol-artifact-1",
  "contractName": "LuxNFT",
  "sourceName": "src/LuxNFT.sol",
  "abi": [
    {
      "inputs": [
        {
          "internalType": "string",
          "name": "baseURI",
          "type": "string"
        }
      ],
      "stateMutability": "nonpayable",
      "type": "constructor"
    },
    {
      "anonymous": false,
      "inputs": [
        {
          "indexed": true,
          "internalType": "address",
          "name": "owner",
          "type": "address"
        },
        {
          "indexed": true,
          "internalType": "address",
          "name": "approved",
          "type": "address"
        },
        {
          "indexed": true,
          "internalType": "uint256",
          "name": "tokenId",
          "type": "uint256"
        }
      ],
      "name": "Approval",
      "type": "event"
    },
    {
      "anonymous": false,
      "inputs": [
        {
          "indexed": true,
          "internalType": "address",
          "name": "owner",
          "type": "address"
        },
        {
          "indexed": true,
          "internalType": "address",
          "name": "operator",
          "type": "address"
        },
        {
          "indexed": false,
          "internalType": "bool",
          "name": "approved",
          "type": "bool"
        }
      ],
      "name": "ApprovalForAll",
      "type": "event"
    },
    {
      "anonymous": false,
      "inputs": [
        {
          "indexed": true,
          "internalType": "address",
          "name": "previousOwner",
          "type": "address"
        },
        {
          "indexed": true,
          "internalType": "address",
          "name": "newOwner",
          "type": "address"
        }
      ],
      "name": "OwnershipTransferred",
      "type": "event"
    },
    {
      "anonymous": false,
      "inputs": [
        {
          "indexed": true,
          "internalType": "address",
          "name": "from",
          "type": "address"
        },
        {
          "indexed": true,
          "internalType": "address",
          "name": "to",
          "type": "address"
        },
        {
          "indexed": true,
          "internalType": "uint256",
          "name": "tokenId",
          "type": "uint256"
        }
      ],
      "name": "Transfer",
      "type": "event"
    },
    {
      "stateMutability": "payable",
      "type": "fallback"
    },
    {
      "inputs": [],
      "name": "_paused",
      "outputs": [
        {
          "internalType": "bool",
          "name": "",
          "type": "bool"
        }
      ],
      "stateMutability": "view",
      "type": "function"
    },
    {
      "inputs": [],
      "name": "_price",
      "outputs": [
        {
          "internalType": "uint256",
          "name": "",
          "type": "uint256"
        }
      ],
      "stateMutability": "view",
      "type": "function"
    },
    {
      "inputs": [],
      "name": "addDrop",
      "outputs": [],
      "stateMutability": "nonpayable",
      "type": "function"
    },
    {
      "inputs": [
        {
          "internalType": "address",
          "name": "to",
          "type": "address"
        },
        {
          "internalType": "uint256",
          "name": "tokenId",
          "type": "uint256"
        }
      ],
      "name": "approve",
      "outputs": [],
      "stateMutability": "nonpayable",
      "type": "function"
    },
    {
      "inputs": [
        {
          "internalType": "address",
          "name": "owner",
          "type": "address"
        }
      ],
      "name": "balanceOf",
      "outputs": [
        {
          "internalType": "uint256",
          "name": "",
          "type": "uint256"
        }
      ],
      "stateMutability": "view",
      "type": "function"
    },
    {
      "inputs": [
        {
          "internalType": "uint256",
          "name": "tokenId",
          "type": "uint256"
        }
      ],
      "name": "getApproved",
      "outputs": [
        {
          "internalType": "address",
          "name": "",
          "type": "address"
        }
      ],
      "stateMutability": "view",
      "type": "function"
    },
    {
      "inputs": [
        {
          "internalType": "address",
          "name": "owner",
          "type": "address"
        },
        {
          "internalType": "address",
          "name": "operator",
          "type": "address"
        }
      ],
      "name": "isApprovedForAll",
      "outputs": [
        {
          "internalType": "bool",
          "name": "",
          "type": "bool"
        }
      ],
      "stateMutability": "view",
      "type": "function"
    },
    {
      "inputs": [],
      "name": "maxTokenIds",
      "outputs": [
        {
          "internalType": "uint256",
          "name": "",
          "type": "uint256"
        }
      ],
      "stateMutability": "view",
      "type": "function"
    },
    {
      "inputs": [],
      "name": "mint",
      "outputs": [],
      "stateMutability": "payable",
      "type": "function"
    },
    {
      "inputs": [],
      "name": "name",
      "outputs": [
        {
          "internalType": "string",
          "name": "",
          "type": "string"
        }
      ],
      "stateMutability": "view",
      "type": "function"
    },
    {
      "inputs": [],
      "name": "owner",
      "outputs": [
        {
          "internalType": "address",
          "name": "",
          "type": "address"
        }
      ],
      "stateMutability": "view",
      "type": "function"
    },
    {
      "inputs": [
        {
          "internalType": "uint256",
          "name": "tokenId",
          "type": "uint256"
        }
      ],
      "name": "ownerOf",
      "outputs": [
        {
          "internalType": "address",
          "name": "",
          "type": "address"
        }
      ],
      "stateMutability": "view",
      "type": "function"
    },
    {
      "inputs": [],
      "name": "renounceOwnership",
      "outputs": [],
      "stateMutability": "nonpayable",
      "type": "function"
    },
    {
      "inputs": [
        {
          "internalType": "address",
          "name": "from",
          "type": "address"
        },
        {
          "internalType": "address",
          "name": "to",
          "type": "address"
        },
        {
          "internalType": "uint256",
          "name": "tokenId",
          "type": "uint256"
        }
      ],
      "name": "safeTransferFrom",
      "outputs": [],
      "stateMutability": "nonpayable",
      "type": "function"
    },
    {
      "inputs": [
        {
          "internalType": "address",
          "name": "from",
          "type": "address"
        },
        {
          "internalType": "address",
          "name": "to",
          "type": "address"
        },
        {
          "internalType": "uint256",
          "name": "tokenId",
          "type": "uint256"
        },
        {
          "internalType": "bytes",
          "name": "data",
          "type": "bytes"
        }
      ],
      "name": "safeTransferFrom",
      "outputs": [],
      "stateMutability": "nonpayable",
      "type": "function"
    },
    {
      "inputs": [
        {
          "internalType": "address",
          "name": "operator",
          "type": "address"
        },
        {
          "internalType": "bool",
          "name": "approved",
          "type": "bool"
        }
      ],
      "name": "setApprovalForAll",
      "outputs": [],
      "stateMutability": "nonpayable",
      "type": "function"
    },
    {
      "inputs": [
        {
          "internalType": "bool",
          "name": "val",
          "type": "bool"
        }
      ],
      "name": "setPaused",
      "outputs": [],
      "stateMutability": "nonpayable",
      "type": "function"
    },
    {
      "inputs": [
        {
          "internalType": "bytes4",
          "name": "interfaceId",
          "type": "bytes4"
        }
      ],
      "name": "supportsInterface",
      "outputs": [
        {
          "internalType": "bool",
          "name": "",
          "type": "bool"
        }
      ],
      "stateMutability": "view",
      "type": "function"
    },
    {
      "inputs": [],
      "name": "symbol",
      "outputs": [
        {
          "internalType": "string",
          "name": "",
          "type": "string"
        }
      ],
      "stateMutability": "view",
      "type": "function"
    },
    {
      "inputs": [
        {
          "internalType": "uint256",
          "name": "index",
          "type": "uint256"
        }
      ],
      "name": "tokenByIndex",
      "outputs": [
        {
          "internalType": "uint256",
          "name": "",
          "type": "uint256"
        }
      ],
      "stateMutability": "view",
      "type": "function"
    },
    {
      "inputs": [],
      "name": "tokenIds",
      "outputs": [
        {
          "internalType": "uint256",
          "name": "",
          "type": "uint256"
        }
      ],
      "stateMutability": "view",
      "type": "function"
    },
    {
      "inputs": [
        {
          "internalType": "address",
          "name": "owner",
          "type": "address"
        },
        {
          "internalType": "uint256",
          "name": "index",
          "type": "uint256"
        }
      ],
      "name": "tokenOfOwnerByIndex",
      "outputs": [
        {
          "internalType": "uint256",
          "name": "",
          "type": "uint256"
        }
      ],
      "stateMutability": "view",
      "type": "function"
    },
    {
      "inputs": [
        {
          "internalType": "uint256",
          "name": "tokenId",
          "type": "uint256"
        }
      ],
      "name": "tokenURI",
      "outputs": [
        {
          "internalType": "string",
          "name": "",
          "type": "string"
        }
      ],
      "stateMutability": "view",
      "type": "function"
    },
    {
      "inputs": [],
      "name": "totalSupply",
      "outputs": [
        {
          "internalType": "uint256",
          "name": "",
          "type": "uint256"
        }
      ],
      "stateMutability": "view",
      "type": "function"
    },
    {
      "inputs": [
        {
          "internalType": "address",
          "name": "from",
          "type": "address"
        },
        {
          "internalType": "address",
          "name": "to",
          "type": "address"
        },
        {
          "internalType": "uint256",
          "name": "tokenId",
          "type": "uint256"
        }
      ],
      "name": "transferFrom",
      "outputs": [],
      "stateMutability": "nonpayable",
      "type": "function"
    },
    {
      "inputs": [
        {
          "internalType": "address",
          "name": "newOwner",
          "type": "address"
        }
      ],
      "name": "transferOwnership",
      "outputs": [],
      "stateMutability": "nonpayable",
      "type": "function"
    },
    {
      "inputs": [],
      "name": "withdraw",
      "outputs": [],
      "stateMutability": "nonpayable",
      "type": "function"
    },
    {
      "stateMutability": "payable",
      "type": "receive"
    }
  ],
  "bytecode": "0x608060405266038d7ea4c68000600c55610457600e553480156200002257600080fd5b5060405162003f1138038062003f11833981810160405281019062000048919062000374565b6040518060400160405280600381526020017f4c555800000000000000000000000000000000000000000000000000000000008152506040518060400160405280600381526020017f4c555800000000000000000000000000000000000000000000000000000000008152508160009081620000c5919062000610565b508060019081620000d7919062000610565b505050620000fa620000ee6200011360201b60201c565b6200011b60201b60201c565b80600b90816200010b919062000610565b5050620006f7565b600033905090565b6000600a60009054906101000a900473ffffffffffffffffffffffffffffffffffffffff16905081600a60006101000a81548173ffffffffffffffffffffffffffffffffffffffff021916908373ffffffffffffffffffffffffffffffffffffffff1602179055508173ffffffffffffffffffffffffffffffffffffffff168173ffffffffffffffffffffffffffffffffffffffff167f8be0079c531659141344cd1fd0a4f28419497f9722a3daafe3b4186f6b6457e060405160405180910390a35050565b6000604051905090565b600080fd5b600080fd5b600080fd5b600080fd5b6000601f19601f8301169050919050565b7f4e487b7100000000000000000000000000000000000000000000000000000000600052604160045260246000fd5b6200024a82620001ff565b810181811067ffffffffffffffff821117156200026c576200026b62000210565b5b80604052505050565b600062000281620001e1565b90506200028f82826200023f565b919050565b600067ffffffffffffffff821115620002b257620002b162000210565b5b620002bd82620001ff565b9050602081019050919050565b60005b83811015620002ea578082015181840152602081019050620002cd565b60008484015250505050565b60006200030d620003078462000294565b62000275565b9050828152602081018484840111156200032c576200032b620001fa565b5b62000339848285620002ca565b509392505050565b600082601f830112620003595762000358620001f5565b5b81516200036b848260208601620002f6565b91505092915050565b6000602082840312156200038d576200038c620001eb565b5b600082015167ffffffffffffffff811115620003ae57620003ad620001f0565b5b620003bc8482850162000341565b91505092915050565b600081519050919050565b7f4e487b7100000000000000000000000000000000000000000000000000000000600052602260045260246000fd5b600060028204905060018216806200041857607f821691505b6020821081036200042e576200042d620003d0565b5b50919050565b60008190508160005260206000209050919050565b60006020601f8301049050919050565b600082821b905092915050565b600060088302620004987fffffffffffffffffffffffffffffffffffffffffffffffffffffffffffffffff8262000459565b620004a4868362000459565b95508019841693508086168417925050509392505050565b6000819050919050565b6000819050919050565b6000620004f1620004eb620004e584620004bc565b620004c6565b620004bc565b9050919050565b6000819050919050565b6200050d83620004d0565b620005256200051c82620004f8565b84845462000466565b825550505050565b600090565b6200053c6200052d565b6200054981848462000502565b505050565b5b8181101562000571576200056560008262000532565b6001810190506200054f565b5050565b601f821115620005c0576200058a8162000434565b620005958462000449565b81016020851015620005a5578190505b620005bd620005b48562000449565b8301826200054e565b50505b505050565b600082821c905092915050565b6000620005e560001984600802620005c5565b1980831691505092915050565b6000620006008383620005d2565b9150826002028217905092915050565b6200061b82620003c5565b67ffffffffffffffff81111562000637576200063662000210565b5b620006438254620003ff565b6200065082828562000575565b600060209050601f83116001811462000688576000841562000673578287015190505b6200067f8582620005f2565b865550620006ef565b601f198416620006988662000434565b60005b82811015620006c2578489015182556001820191506020850194506020810190506200069b565b86831015620006e25784890151620006de601f891682620005d2565b8355505b6001600288020188555050505b505050505050565b61380a80620007076000396000f3fe6080604052600436106101a05760003560e01c806342842e0e116100ec5780638da5cb5b1161008a578063b88d4fde11610064578063b88d4fde1461058b578063c87b56dd146105b4578063e985e9c5146105f1578063f2fde38b1461062e576101a7565b80638da5cb5b1461050c57806395d89b4114610537578063a22cb46514610562576101a7565b80636352211e116100c65780636352211e1461045057806370a082311461048d578063714cff56146104ca578063715018a6146104f5576101a7565b806342842e0e146103bf5780634f6ccce7146103e85780635f76962114610425576101a7565b806316c61ccc1161015957806323b872dd1161013357806323b872dd1461032b57806329e614ee146103545780632f745c591461036b5780633ccfd60b146103a8576101a7565b806316c61ccc146102aa57806318160ddd146102d5578063235b6ea114610300576101a7565b806301ffc9a7146101a957806306fdde03146101e6578063081812fc14610211578063095ea7b31461024e5780631249c58b1461027757806316c38b3c14610281576101a7565b366101a757005b005b3480156101b557600080fd5b506101d060048036038101906101cb9190612439565b610657565b6040516101dd9190612481565b60405180910390f35b3480156101f257600080fd5b506101fb6106d1565b604051610208919061252c565b60405180910390f35b34801561021d57600080fd5b5061023860048036038101906102339190612584565b610763565b60405161024591906125f2565b60405180910390f35b34801561025a57600080fd5b5061027560048036038101906102709190612639565b6107a9565b005b61027f6108c0565b005b34801561028d57600080fd5b506102a860048036038101906102a391906126a5565b6109c3565b005b3480156102b657600080fd5b506102bf6109e8565b6040516102cc9190612481565b60405180910390f35b3480156102e157600080fd5b506102ea6109fb565b6040516102f791906126e1565b60405180910390f35b34801561030c57600080fd5b50610315610a08565b60405161032291906126e1565b60405180910390f35b34801561033757600080fd5b50610352600480360381019061034d91906126fc565b610a0e565b005b34801561036057600080fd5b50610369610a6e565b005b34801561037757600080fd5b50610392600480360381019061038d9190612639565b610a78565b60405161039f91906126e1565b60405180910390f35b3480156103b457600080fd5b506103bd610b1d565b005b3480156103cb57600080fd5b506103e660048036038101906103e191906126fc565b610be7565b005b3480156103f457600080fd5b5061040f600480360381019061040a9190612584565b610c07565b60405161041c91906126e1565b60405180910390f35b34801561043157600080fd5b5061043a610c78565b60405161044791906126e1565b60405180910390f35b34801561045c57600080fd5b5061047760048036038101906104729190612584565b610c7e565b60405161048491906125f2565b60405180910390f35b34801561049957600080fd5b506104b460048036038101906104af919061274f565b610d2f565b6040516104c191906126e1565b60405180910390f35b3480156104d657600080fd5b506104df610de6565b6040516104ec91906126e1565b60405180910390f35b34801561050157600080fd5b5061050a610dec565b005b34801561051857600080fd5b50610521610e00565b60405161052e91906125f2565b60405180910390f35b34801561054357600080fd5b5061054c610e2a565b604051610559919061252c565b60405180910390f35b34801561056e57600080fd5b506105896004803603810190610584919061277c565b610ebc565b005b34801561059757600080fd5b506105b260048036038101906105ad91906128f1565b610ed2565b005b3480156105c057600080fd5b506105db60048036038101906105d69190612584565b610f34565b6040516105e8919061252c565b60405180910390f35b3480156105fd57600080fd5b5061061860048036038101906106139190612974565b610fdb565b6040516106259190612481565b60405180910390f35b34801561063a57600080fd5b506106556004803603810190610650919061274f565b61106f565b005b60007f780e9d63000000000000000000000000000000000000000000000000000000007bffffffffffffffffffffffffffffffffffffffffffffffffffffffff1916827bffffffffffffffffffffffffffffffffffffffffffffffffffffffff191614806106ca57506106c9826110f2565b5b9050919050565b6060600080546106e0906129e3565b80601f016020809104026020016040519081016040528092919081815260200182805461070c906129e3565b80156107595780601f1061072e57610100808354040283529160200191610759565b820191906000526020600020905b81548152906001019060200180831161073c57829003601f168201915b5050505050905090565b600061076e826111d4565b6004600083815260200190815260200160002060009054906101000a900473ffffffffffffffffffffffffffffffffffffffff169050919050565b60006107b482610c7e565b90508073ffffffffffffffffffffffffffffffffffffffff168373ffffffffffffffffffffffffffffffffffffffff1603610824576040517f08c379a000000000000000000000000000000000000000000000000000000000815260040161081b90612a86565b60405180910390fd5b8073ffffffffffffffffffffffffffffffffffffffff1661084361121f565b73ffffffffffffffffffffffffffffffffffffffff16148061087257506108718161086c61121f565b610fdb565b5b6108b1576040517f08c379a00000000000000000000000000000000000000000000000000000000081526004016108a890612b18565b60405180910390fd5b6108bb8383611227565b505050565b600d60009054906101000a900460ff1615610910576040517f08c379a000000000000000000000000000000000000000000000000000000000815260040161090790612b84565b60405180910390fd5b600e54600f5410610956576040517f08c379a000000000000000000000000000000000000000000000000000000000815260040161094d90612bf0565b60405180910390fd5b600c5434101561099b576040517f08c379a000000000000000000000000000000000000000000000000000000000815260040161099290612c5c565b60405180910390fd5b6001600f60008282546109ae9190612cab565b925050819055506109c133600f546112e0565b565b6109cb6112fe565b80600d60006101000a81548160ff02191690831515021790555050565b600d60009054906101000a900460ff1681565b6000600880549050905090565b600c5481565b610a1f610a1961121f565b8261137c565b610a5e576040517f08c379a0000000000000000000000000000000000000000000000000000000008152600401610a5590612d51565b60405180910390fd5b610a69838383611411565b505050565b610a766112fe565b565b6000610a8383610d2f565b8210610ac4576040517f08c379a0000000000000000000000000000000000000000000000000000000008152600401610abb90612de3565b60405180910390fd5b600660008473ffffffffffffffffffffffffffffffffffffffff1673ffffffffffffffffffffffffffffffffffffffff168152602001908152602001600020600083815260200190815260200160002054905092915050565b610b256112fe565b6000610b2f610e00565b9050600047905060008273ffffffffffffffffffffffffffffffffffffffff1682604051610b5c90612e34565b60006040518083038185875af1925050503d8060008114610b99576040519150601f19603f3d011682016040523d82523d6000602084013e610b9e565b606091505b5050905080610be2576040517f08c379a0000000000000000000000000000000000000000000000000000000008152600401610bd990612e95565b60405180910390fd5b505050565b610c0283838360405180602001604052806000815250610ed2565b505050565b6000610c116109fb565b8210610c52576040517f08c379a0000000000000000000000000000000000000000000000000000000008152600401610c4990612f27565b60405180910390fd5b60088281548110610c6657610c65612f47565b5b90600052602060002001549050919050565b600e5481565b6000806002600084815260200190815260200160002060009054906101000a900473ffffffffffffffffffffffffffffffffffffffff169050600073ffffffffffffffffffffffffffffffffffffffff168173ffffffffffffffffffffffffffffffffffffffff1603610d26576040517f08c379a0000000000000000000000000000000000000000000000000000000008152600401610d1d90612fc2565b60405180910390fd5b80915050919050565b60008073ffffffffffffffffffffffffffffffffffffffff168273ffffffffffffffffffffffffffffffffffffffff1603610d9f576040517f08c379a0000000000000000000000000000000000000000000000000000000008152600401610d9690613054565b60405180910390fd5b600360008373ffffffffffffffffffffffffffffffffffffffff1673ffffffffffffffffffffffffffffffffffffffff168152602001908152602001600020549050919050565b600f5481565b610df46112fe565b610dfe6000611677565b565b6000600a60009054906101000a900473ffffffffffffffffffffffffffffffffffffffff16905090565b606060018054610e39906129e3565b80601f0160208091040260200160405190810160405280929190818152602001828054610e65906129e3565b8015610eb25780601f10610e8757610100808354040283529160200191610eb2565b820191906000526020600020905b815481529060010190602001808311610e9557829003601f168201915b5050505050905090565b610ece610ec761121f565b838361173d565b5050565b610ee3610edd61121f565b8361137c565b610f22576040517f08c379a0000000000000000000000000000000000000000000000000000000008152600401610f1990612d51565b60405180910390fd5b610f2e848484846118a9565b50505050565b6060610f3f82611905565b610f7e576040517f08c379a0000000000000000000000000000000000000000000000000000000008152600401610f75906130e6565b60405180910390fd5b6000610f88611971565b90506000815111610fa85760405180602001604052806000815250610fd3565b80610fb284611a03565b604051602001610fc392919061318e565b6040516020818303038152906040525b915050919050565b6000600560008473ffffffffffffffffffffffffffffffffffffffff1673ffffffffffffffffffffffffffffffffffffffff16815260200190815260200160002060008373ffffffffffffffffffffffffffffffffffffffff1673ffffffffffffffffffffffffffffffffffffffff16815260200190815260200160002060009054906101000a900460ff16905092915050565b6110776112fe565b600073ffffffffffffffffffffffffffffffffffffffff168173ffffffffffffffffffffffffffffffffffffffff16036110e6576040517f08c379a00000000000000000000000000000000000000000000000000000000081526004016110dd9061322f565b60405180910390fd5b6110ef81611677565b50565b60007f80ac58cd000000000000000000000000000000000000000000000000000000007bffffffffffffffffffffffffffffffffffffffffffffffffffffffff1916827bffffffffffffffffffffffffffffffffffffffffffffffffffffffff191614806111bd57507f5b5e139f000000000000000000000000000000000000000000000000000000007bffffffffffffffffffffffffffffffffffffffffffffffffffffffff1916827bffffffffffffffffffffffffffffffffffffffffffffffffffffffff1916145b806111cd57506111cc82611b63565b5b9050919050565b6111dd81611905565b61121c576040517f08c379a000000000000000000000000000000000000000000000000000000000815260040161121390612fc2565b60405180910390fd5b50565b600033905090565b816004600083815260200190815260200160002060006101000a81548173ffffffffffffffffffffffffffffffffffffffff021916908373ffffffffffffffffffffffffffffffffffffffff160217905550808273ffffffffffffffffffffffffffffffffffffffff1661129a83610c7e565b73ffffffffffffffffffffffffffffffffffffffff167f8c5be1e5ebec7d5bd14f71427d1e84f3dd0314c0f7b2291e5b200ac8c7c3b92560405160405180910390a45050565b6112fa828260405180602001604052806000815250611bcd565b5050565b61130661121f565b73ffffffffffffffffffffffffffffffffffffffff16611324610e00565b73ffffffffffffffffffffffffffffffffffffffff161461137a576040517f08c379a00000000000000000000000000000000000000000000000000000000081526004016113719061329b565b60405180910390fd5b565b60008061138883610c7e565b90508073ffffffffffffffffffffffffffffffffffffffff168473ffffffffffffffffffffffffffffffffffffffff1614806113ca57506113c98185610fdb565b5b8061140857508373ffffffffffffffffffffffffffffffffffffffff166113f084610763565b73ffffffffffffffffffffffffffffffffffffffff16145b91505092915050565b8273ffffffffffffffffffffffffffffffffffffffff1661143182610c7e565b73ffffffffffffffffffffffffffffffffffffffff1614611487576040517f08c379a000000000000000000000000000000000000000000000000000000000815260040161147e9061332d565b60405180910390fd5b600073ffffffffffffffffffffffffffffffffffffffff168273ffffffffffffffffffffffffffffffffffffffff16036114f6576040517f08c379a00000000000000000000000000000000000000000000000000000000081526004016114ed906133bf565b60405180910390fd5b611501838383611c28565b61150c600082611227565b6001600360008573ffffffffffffffffffffffffffffffffffffffff1673ffffffffffffffffffffffffffffffffffffffff168152602001908152602001600020600082825461155c91906133df565b925050819055506001600360008473ffffffffffffffffffffffffffffffffffffffff1673ffffffffffffffffffffffffffffffffffffffff16815260200190815260200160002060008282546115b39190612cab565b92505081905550816002600083815260200190815260200160002060006101000a81548173ffffffffffffffffffffffffffffffffffffffff021916908373ffffffffffffffffffffffffffffffffffffffff160217905550808273ffffffffffffffffffffffffffffffffffffffff168473ffffffffffffffffffffffffffffffffffffffff167fddf252ad1be2c89b69c2b068fc378daa952ba7f163c4a11628f55a4df523b3ef60405160405180910390a4611672838383611d3a565b505050565b6000600a60009054906101000a900473ffffffffffffffffffffffffffffffffffffffff16905081600a60006101000a81548173ffffffffffffffffffffffffffffffffffffffff021916908373ffffffffffffffffffffffffffffffffffffffff1602179055508173ffffffffffffffffffffffffffffffffffffffff168173ffffffffffffffffffffffffffffffffffffffff167f8be0079c531659141344cd1fd0a4f28419497f9722a3daafe3b4186f6b6457e060405160405180910390a35050565b8173ffffffffffffffffffffffffffffffffffffffff168373ffffffffffffffffffffffffffffffffffffffff16036117ab576040517f08c379a00000000000000000000000000000000000000000000000000000000081526004016117a29061345f565b60405180910390fd5b80600560008573ffffffffffffffffffffffffffffffffffffffff1673ffffffffffffffffffffffffffffffffffffffff16815260200190815260200160002060008473ffffffffffffffffffffffffffffffffffffffff1673ffffffffffffffffffffffffffffffffffffffff16815260200190815260200160002060006101000a81548160ff0219169083151502179055508173ffffffffffffffffffffffffffffffffffffffff168373ffffffffffffffffffffffffffffffffffffffff167f17307eab39ab6107e8899845ad3d59bd9653f200f220920489ca2b5937696c318360405161189c9190612481565b60405180910390a3505050565b6118b4848484611411565b6118c084848484611d3f565b6118ff576040517f08c379a00000000000000000000000000000000000000000000000000000000081526004016118f6906134f1565b60405180910390fd5b50505050565b60008073ffffffffffffffffffffffffffffffffffffffff166002600084815260200190815260200160002060009054906101000a900473ffffffffffffffffffffffffffffffffffffffff1673ffffffffffffffffffffffffffffffffffffffff1614159050919050565b6060600b8054611980906129e3565b80601f01602080910402602001604051908101604052809291908181526020018280546119ac906129e3565b80156119f95780601f106119ce576101008083540402835291602001916119f9565b820191906000526020600020905b8154815290600101906020018083116119dc57829003601f168201915b5050505050905090565b606060008203611a4a576040518060400160405280600181526020017f30000000000000000000000000000000000000000000000000000000000000008152509050611b5e565b600082905060005b60008214611a7c578080611a6590613511565b915050600a82611a759190613588565b9150611a52565b60008167ffffffffffffffff811115611a9857611a976127c6565b5b6040519080825280601f01601f191660200182016040528015611aca5781602001600182028036833780820191505090505b5090505b60008514611b5757600182611ae391906133df565b9150600a85611af291906135b9565b6030611afe9190612cab565b60f81b818381518110611b1457611b13612f47565b5b60200101907effffffffffffffffffffffffffffffffffffffffffffffffffffffffffffff1916908160001a905350600a85611b509190613588565b9450611ace565b8093505050505b919050565b60007f01ffc9a7000000000000000000000000000000000000000000000000000000007bffffffffffffffffffffffffffffffffffffffffffffffffffffffff1916827bffffffffffffffffffffffffffffffffffffffffffffffffffffffff1916149050919050565b611bd78383611ec6565b611be46000848484611d3f565b611c23576040517f08c379a0000000000000000000000000000000000000000000000000000000008152600401611c1a906134f1565b60405180910390fd5b505050565b611c3383838361209f565b600073ffffffffffffffffffffffffffffffffffffffff168373ffffffffffffffffffffffffffffffffffffffff1603611c7557611c70816120a4565b611cb4565b8173ffffffffffffffffffffffffffffffffffffffff168373ffffffffffffffffffffffffffffffffffffffff1614611cb357611cb283826120ed565b5b5b600073ffffffffffffffffffffffffffffffffffffffff168273ffffffffffffffffffffffffffffffffffffffff1603611cf657611cf18161225a565b611d35565b8273ffffffffffffffffffffffffffffffffffffffff168273ffffffffffffffffffffffffffffffffffffffff1614611d3457611d33828261232b565b5b5b505050565b505050565b6000611d608473ffffffffffffffffffffffffffffffffffffffff166123aa565b15611eb9578373ffffffffffffffffffffffffffffffffffffffff1663150b7a02611d8961121f565b8786866040518563ffffffff1660e01b8152600401611dab949392919061363f565b6020604051808303816000875af1925050508015611de757506040513d601f19601f82011682018060405250810190611de491906136a0565b60015b611e69573d8060008114611e17576040519150601f19603f3d011682016040523d82523d6000602084013e611e1c565b606091505b506000815103611e61576040517f08c379a0000000000000000000000000000000000000000000000000000000008152600401611e58906134f1565b60405180910390fd5b805181602001fd5b63150b7a0260e01b7bffffffffffffffffffffffffffffffffffffffffffffffffffffffff1916817bffffffffffffffffffffffffffffffffffffffffffffffffffffffff191614915050611ebe565b600190505b949350505050565b600073ffffffffffffffffffffffffffffffffffffffff168273ffffffffffffffffffffffffffffffffffffffff1603611f35576040517f08c379a0000000000000000000000000000000000000000000000000000000008152600401611f2c90613719565b60405180910390fd5b611f3e81611905565b15611f7e576040517f08c379a0000000000000000000000000000000000000000000000000000000008152600401611f7590613785565b60405180910390fd5b611f8a60008383611c28565b6001600360008473ffffffffffffffffffffffffffffffffffffffff1673ffffffffffffffffffffffffffffffffffffffff1681526020019081526020016000206000828254611fda9190612cab565b92505081905550816002600083815260200190815260200160002060006101000a81548173ffffffffffffffffffffffffffffffffffffffff021916908373ffffffffffffffffffffffffffffffffffffffff160217905550808273ffffffffffffffffffffffffffffffffffffffff16600073ffffffffffffffffffffffffffffffffffffffff167fddf252ad1be2c89b69c2b068fc378daa952ba7f163c4a11628f55a4df523b3ef60405160405180910390a461209b60008383611d3a565b5050565b505050565b6008805490506009600083815260200190815260200160002081905550600881908060018154018082558091505060019003906000526020600020016000909190919091505550565b600060016120fa84610d2f565b61210491906133df565b90506000600760008481526020019081526020016000205490508181146121e9576000600660008673ffffffffffffffffffffffffffffffffffffffff1673ffffffffffffffffffffffffffffffffffffffff168152602001908152602001600020600084815260200190815260200160002054905080600660008773ffffffffffffffffffffffffffffffffffffffff1673ffffffffffffffffffffffffffffffffffffffff168152602001908152602001600020600084815260200190815260200160002081905550816007600083815260200190815260200160002081905550505b6007600084815260200190815260200160002060009055600660008573ffffffffffffffffffffffffffffffffffffffff1673ffffffffffffffffffffffffffffffffffffffff16815260200190815260200160002060008381526020019081526020016000206000905550505050565b6000600160088054905061226e91906133df565b905060006009600084815260200190815260200160002054905060006008838154811061229e5761229d612f47565b5b9060005260206000200154905080600883815481106122c0576122bf612f47565b5b90600052602060002001819055508160096000838152602001908152602001600020819055506009600085815260200190815260200160002060009055600880548061230f5761230e6137a5565b5b6001900381819060005260206000200160009055905550505050565b600061233683610d2f565b905081600660008573ffffffffffffffffffffffffffffffffffffffff1673ffffffffffffffffffffffffffffffffffffffff168152602001908152602001600020600083815260200190815260200160002081905550806007600084815260200190815260200160002081905550505050565b6000808273ffffffffffffffffffffffffffffffffffffffff163b119050919050565b6000604051905090565b600080fd5b600080fd5b60007fffffffff0000000000000000000000000000000000000000000000000000000082169050919050565b612416816123e1565b811461242157600080fd5b50565b6000813590506124338161240d565b92915050565b60006020828403121561244f5761244e6123d7565b5b600061245d84828501612424565b91505092915050565b60008115159050919050565b61247b81612466565b82525050565b60006020820190506124966000830184612472565b92915050565b600081519050919050565b600082825260208201905092915050565b60005b838110156124d65780820151818401526020810190506124bb565b60008484015250505050565b6000601f19601f8301169050919050565b60006124fe8261249c565b61250881856124a7565b93506125188185602086016124b8565b612521816124e2565b840191505092915050565b6000602082019050818103600083015261254681846124f3565b905092915050565b6000819050919050565b6125618161254e565b811461256c57600080fd5b50565b60008135905061257e81612558565b92915050565b60006020828403121561259a576125996123d7565b5b60006125a88482850161256f565b91505092915050565b600073ffffffffffffffffffffffffffffffffffffffff82169050919050565b60006125dc826125b1565b9050919050565b6125ec816125d1565b82525050565b600060208201905061260760008301846125e3565b92915050565b612616816125d1565b811461262157600080fd5b50565b6000813590506126338161260d565b92915050565b600080604083850312156126505761264f6123d7565b5b600061265e85828601612624565b925050602061266f8582860161256f565b9150509250929050565b61268281612466565b811461268d57600080fd5b50565b60008135905061269f81612679565b92915050565b6000602082840312156126bb576126ba6123d7565b5b60006126c984828501612690565b91505092915050565b6126db8161254e565b82525050565b60006020820190506126f660008301846126d2565b92915050565b600080600060608486031215612715576127146123d7565b5b600061272386828701612624565b935050602061273486828701612624565b92505060406127458682870161256f565b9150509250925092565b600060208284031215612765576127646123d7565b5b600061277384828501612624565b91505092915050565b60008060408385031215612793576127926123d7565b5b60006127a185828601612624565b92505060206127b285828601612690565b9150509250929050565b600080fd5b600080fd5b7f4e487b7100000000000000000000000000000000000000000000000000000000600052604160045260246000fd5b6127fe826124e2565b810181811067ffffffffffffffff8211171561281d5761281c6127c6565b5b80604052505050565b60006128306123cd565b905061283c82826127f5565b919050565b600067ffffffffffffffff82111561285c5761285b6127c6565b5b612865826124e2565b9050602081019050919050565b82818337600083830152505050565b600061289461288f84612841565b612826565b9050828152602081018484840111156128b0576128af6127c1565b5b6128bb848285612872565b509392505050565b600082601f8301126128d8576128d76127bc565b5b81356128e8848260208601612881565b91505092915050565b6000806000806080858703121561290b5761290a6123d7565b5b600061291987828801612624565b945050602061292a87828801612624565b935050604061293b8782880161256f565b925050606085013567ffffffffffffffff81111561295c5761295b6123dc565b5b612968878288016128c3565b91505092959194509250565b6000806040838503121561298b5761298a6123d7565b5b600061299985828601612624565b92505060206129aa85828601612624565b9150509250929050565b7f4e487b7100000000000000000000000000000000000000000000000000000000600052602260045260246000fd5b600060028204905060018216806129fb57607f821691505b602082108103612a0e57612a0d6129b4565b5b50919050565b7f4552433732313a20617070726f76616c20746f2063757272656e74206f776e6560008201527f7200000000000000000000000000000000000000000000000000000000000000602082015250565b6000612a706021836124a7565b9150612a7b82612a14565b604082019050919050565b60006020820190508181036000830152612a9f81612a63565b9050919050565b7f4552433732313a20617070726f76652063616c6c6572206973206e6f7420746f60008201527f6b656e206f776e6572206e6f7220617070726f76656420666f7220616c6c0000602082015250565b6000612b02603e836124a7565b9150612b0d82612aa6565b604082019050919050565b60006020820190508181036000830152612b3181612af5565b9050919050565b7f436f6e74726163742063757272656e746c792070617573656400000000000000600082015250565b6000612b6e6019836124a7565b9150612b7982612b38565b602082019050919050565b60006020820190508181036000830152612b9d81612b61565b9050919050565b7f457863656564206d6178696d756d20737570706c790000000000000000000000600082015250565b6000612bda6015836124a7565b9150612be582612ba4565b602082019050919050565b60006020820190508181036000830152612c0981612bcd565b9050919050565b7f45746865722073656e74206973206e6f7420636f727265637400000000000000600082015250565b6000612c466019836124a7565b9150612c5182612c10565b602082019050919050565b60006020820190508181036000830152612c7581612c39565b9050919050565b7f4e487b7100000000000000000000000000000000000000000000000000000000600052601160045260246000fd5b6000612cb68261254e565b9150612cc18361254e565b9250828201905080821115612cd957612cd8612c7c565b5b92915050565b7f4552433732313a2063616c6c6572206973206e6f7420746f6b656e206f776e6560008201527f72206e6f7220617070726f766564000000000000000000000000000000000000602082015250565b6000612d3b602e836124a7565b9150612d4682612cdf565b604082019050919050565b60006020820190508181036000830152612d6a81612d2e565b9050919050565b7f455243373231456e756d657261626c653a206f776e657220696e646578206f7560008201527f74206f6620626f756e6473000000000000000000000000000000000000000000602082015250565b6000612dcd602b836124a7565b9150612dd882612d71565b604082019050919050565b60006020820190508181036000830152612dfc81612dc0565b9050919050565b600081905092915050565b50565b6000612e1e600083612e03565b9150612e2982612e0e565b600082019050919050565b6000612e3f82612e11565b9150819050919050565b7f4661696c656420746f2073656e64204574686572000000000000000000000000600082015250565b6000612e7f6014836124a7565b9150612e8a82612e49565b602082019050919050565b60006020820190508181036000830152612eae81612e72565b9050919050565b7f455243373231456e756d657261626c653a20676c6f62616c20696e646578206f60008201527f7574206f6620626f756e64730000000000000000000000000000000000000000602082015250565b6000612f11602c836124a7565b9150612f1c82612eb5565b604082019050919050565b60006020820190508181036000830152612f4081612f04565b9050919050565b7f4e487b7100000000000000000000000000000000000000000000000000000000600052603260045260246000fd5b7f4552433732313a20696e76616c696420746f6b656e2049440000000000000000600082015250565b6000612fac6018836124a7565b9150612fb782612f76565b602082019050919050565b60006020820190508181036000830152612fdb81612f9f565b9050919050565b7f4552433732313a2061646472657373207a65726f206973206e6f74206120766160008201527f6c6964206f776e65720000000000000000000000000000000000000000000000602082015250565b600061303e6029836124a7565b915061304982612fe2565b604082019050919050565b6000602082019050818103600083015261306d81613031565b9050919050565b7f4552433732314d657461646174613a2055524920717565727920666f72206e6f60008201527f6e6578697374656e7420746f6b656e0000000000000000000000000000000000602082015250565b60006130d0602f836124a7565b91506130db82613074565b604082019050919050565b600060208201905081810360008301526130ff816130c3565b9050919050565b600081905092915050565b600061311c8261249c565b6131268185613106565b93506131368185602086016124b8565b80840191505092915050565b7f2e6a736f6e000000000000000000000000000000000000000000000000000000600082015250565b6000613178600583613106565b915061318382613142565b600582019050919050565b600061319a8285613111565b91506131a68284613111565b91506131b18261316b565b91508190509392505050565b7f4f776e61626c653a206e6577206f776e657220697320746865207a65726f206160008201527f6464726573730000000000000000000000000000000000000000000000000000602082015250565b60006132196026836124a7565b9150613224826131bd565b604082019050919050565b600060208201905081810360008301526132488161320c565b9050919050565b7f4f776e61626c653a2063616c6c6572206973206e6f7420746865206f776e6572600082015250565b60006132856020836124a7565b91506132908261324f565b602082019050919050565b600060208201905081810360008301526132b481613278565b9050919050565b7f4552433732313a207472616e736665722066726f6d20696e636f72726563742060008201527f6f776e6572000000000000000000000000000000000000000000000000000000602082015250565b60006133176025836124a7565b9150613322826132bb565b604082019050919050565b600060208201905081810360008301526133468161330a565b9050919050565b7f4552433732313a207472616e7366657220746f20746865207a65726f2061646460008201527f7265737300000000000000000000000000000000000000000000000000000000602082015250565b60006133a96024836124a7565b91506133b48261334d565b604082019050919050565b600060208201905081810360008301526133d88161339c565b9050919050565b60006133ea8261254e565b91506133f58361254e565b925082820390508181111561340d5761340c612c7c565b5b92915050565b7f4552433732313a20617070726f766520746f2063616c6c657200000000000000600082015250565b60006134496019836124a7565b915061345482613413565b602082019050919050565b600060208201905081810360008301526134788161343c565b9050919050565b7f4552433732313a207472616e7366657220746f206e6f6e20455243373231526560008201527f63656976657220696d706c656d656e7465720000000000000000000000000000602082015250565b60006134db6032836124a7565b91506134e68261347f565b604082019050919050565b6000602082019050818103600083015261350a816134ce565b9050919050565b600061351c8261254e565b91507fffffffffffffffffffffffffffffffffffffffffffffffffffffffffffffffff820361354e5761354d612c7c565b5b600182019050919050565b7f4e487b7100000000000000000000000000000000000000000000000000000000600052601260045260246000fd5b60006135938261254e565b915061359e8361254e565b9250826135ae576135ad613559565b5b828204905092915050565b60006135c48261254e565b91506135cf8361254e565b9250826135df576135de613559565b5b828206905092915050565b600081519050919050565b600082825260208201905092915050565b6000613611826135ea565b61361b81856135f5565b935061362b8185602086016124b8565b613634816124e2565b840191505092915050565b600060808201905061365460008301876125e3565b61366160208301866125e3565b61366e60408301856126d2565b81810360608301526136808184613606565b905095945050505050565b60008151905061369a8161240d565b92915050565b6000602082840312156136b6576136b56123d7565b5b60006136c48482850161368b565b91505092915050565b7f4552433732313a206d696e7420746f20746865207a65726f2061646472657373600082015250565b60006137036020836124a7565b915061370e826136cd565b602082019050919050565b60006020820190508181036000830152613732816136f6565b9050919050565b7f4552433732313a20746f6b656e20616c7265616479206d696e74656400000000600082015250565b600061376f601c836124a7565b915061377a82613739565b602082019050919050565b6000602082019050818103600083015261379e81613762565b9050919050565b7f4e487b7100000000000000000000000000000000000000000000000000000000600052603160045260246000fdfea26469706673582212205713fa5ca4715d2652c4b7ac9cfec0748efc33aef93e5526d3d47a6981e3831c64736f6c63430008110033",
  "linkReferences": {},
  "deployedLinkReferences": {}
}